:1000000012C0189518951895189518951895189563
:100010001895189518951895189518951895189578
:100020001895189518958FE58DBFC8E3E0E24E2E20
:1000300084E08EBFD4E0F4E05F2EA89584B7082E4C
:10004000877F84BF88E1992781BD91BDEEEFF3E002
:10005000A0E6B0E088278D933197E9F766248FEF0B
:1000600084BB71E075BB80E991E093D072E075BB11
:1000700080E991E08ED074E075BB80E991E089D091
:1000800078E075BB80E991E084D070E175BB80E9D0
:1000900091E07FD070E275BB80E991E07AD071E2A7
:1000A00075BB80E991E075D072E275BB80E991E0A3
:1000B00070D074E275BB80E991E06BD078E275BBDB
:1000C00080E991E066D070E375BB80E991E061D092
:1000D00071E375BB80E991E05CD072E375BB80E9A8
:1000E00091E057D074E375BB80E991E052D078E39A
:1000F00075BB80E991E04DD079E375BB80E991E073
:1001000048D07AE375BB80E991E043D07CE375BBCE
:1001100080E991E03ED07DE375BB80E991E039D084
:100120007EE375BB80E991E034D07FE375BB80E965
:1001300091E02FD070E075BB88EC90E02AD07FE38F
:1001400075BB88EC90E025D070E075BB88EC90E042
:1001500020D07FE375BB88EC90E01BD070E075BBCE
:1001600080E991E016D07FE375BB88EE93E011D073
:1001700070E075BB88EE93E00CD073CFF894FFCF9E
:100180003197F1F70895689462F80895E89462F859
:100190000895EF93FF93EE27E82BE92B31F0EAEF78
:1001A000F0E03197F1F70197D1F7FF91EF910895C2
:00000001FF
